9047660222304                TEST                                           714                                                                                         
15008888025791234567000   24766022304243105099649000000001002000000000000986000001000000986SALE_3000_306570000      FORTALEZA    BR 300000000     9008N3500979 4 0100000
1501            738555                                                          00000146       660004130000000000005 0000 0  1   0                           000000000  
1502            BR    027000000000000000000000 92353655142                                                                                                              
1504AB345     DF0002                          0010ABC222222222223333333333444444444455555555555555555555F1                                                              
1505000000000000000000000000000   00        0000 000000000000N                             000000000000000 0000000000000000000000000000              0000000000000000   
91004766022230400000000000000000000000000100000100000000000600000006331552000000002000000000000000000000000001000000000000000000000000000000000000000000000000000       
920047660222304000000000000000000000000001000001000000000007000000        000000003000000000000000000000000001000000000000000000000000000000000000000000000000000       