9040044423004                TEST                                           001                                                                                         
06004999224500000014000   74004443004300000079254000000000104000000000000   000000004600826MPP ECOMM 2              NEU-ISENBURG DE 599900000     1009N      1 4 0100000
0601            000000                                                          000000000000031E00000310000000000001 0000 0  0   0                           000000000  
06004999224500000014000   74004443004300000079551000000000104000000000000   000000003000826MPP MOTO S BLENDED       NEU-ISENBURG DE 599900000     1009N      1 4 0100000
0601            000000                                                          000000000000040M00000400000000000001 0000 0  0   0                           000000000  
06004999224500000014000   74004443004300000079437000000000104000000000000   000000005300826MPP E.COMM S BLENDED     NEU-ISENBURG DE 599900000     1009N      1 4 0100000
0601            000000                                                          000000000000038E00000380000000000001 0000 0  0   0                           000000000  
06004999224500000014000   74004443004300000079379000000000104000000000000   000000007900826MPP POS SIMPLE           NEU-ISENBURG DE 599900000     1009N      1 4 0100000
0601            000000                                                          000000000000037P00000370000000000001 0000 0  0   0                           000000000  
06004999224500000014000   74004443004300000079270000000000104000000000000   000000005200840MPP ECOMM 2              NEU-ISENBURG DE 599900000     1009N      1 4 0100000
0601            000000                                                          000000000000031E00000310000000000001 0000 0  0   0                           000000000  
06004999224500000014000   74004443004300000079635000000000104000000000000   000000005400840MPP ECOMM S GROSS        NEU-ISENBURG DE 599900000     1009N      1 4 0100000
0601            000000                                                          000000000000041E00000410000000000001 0000 0  0   0                           000000000  
06004999224500000014000   74004443004300000079577000000000104000000000000   000000006300840MPP MOTO S BLENDED       NEU-ISENBURG DE 599900000     1009N      1 4 0100000
0601            000000                                                          000000000000040M00000400000000000001 0000 0  0   0                           000000000  
06004999224500000014000   74004443004300000079452000000000104000000000000   000000005900840MPP E.COMM S BLENDED     NEU-ISENBURG DE 599900000     1009N      1 4 0100000
0601            000000                                                          000000000000038E00000380000000000001 0000 0  0   0                           000000000  
06004999224500000014000   74004443004300000079114000000000104000000000000   000000002200978MERCHANT MPP 1           NEU-ISENBURG DE 599900000     1009N      1 4 0100000
0601            000000                                                          000000000000028E00000280000000000001 0000 0  0   0                           000000000  
06004999224500000014000   74004443004300000079296000000000104000000000000   000000007800978MPP POS SIMPLE           NEU-ISENBURG DE 599900000     1009N      1 4 0100000
0601            000000                                                          000000000000036M00000360000000000001 0000 0  0   0                           000000000  
06004999224500000014000   74004443004300000079650000000000104000000000000   000000002100978MPP E.COMM S HOLD        NEU-ISENBURG DE 599900000     1009N      1 4 0100000
0601            000000                                                          000000000000042000000100000000000001 0000 0  0   0                           000000000  
06004999224500000014000   74004443004300000079478000000000104000000000000   000000006500978MPP POS S BLENDED        NEU-ISENBURG DE 599900000     1009N      1 4 0100000
0601            000000                                                          000000000000039M00000390000000000001 0000 0  0   0                           000000000  
06004999224500000014000   74004443004300000079593000000000104000000000000   000000006800978MPP ECOMM S GROSS        NEU-ISENBURG DE 599900000     1009N      1 4 0100000
0601            000000                                                          000000000000041E00000410000000000001 0000 0  0   0                           000000000  
06004999224500000014000   74004443004300000079411000000000104000000000000   000000002400978MPP E.COMM S BLENDED     NEU-ISENBURG DE 599900000     1009N      1 4 0100000
0601            000000                                                          000000000000038E00000380000000000001 0000 0  0   0                           000000000  
05004999224500000014000   74004443004300000079171000000000104000000000000   000000018200978MPP POS 1                NEU-ISENBURG DE 599900000     1009N      1 4 0100000
0501            000000                                                          000000000000030P00000300000000000001 0000 0  0   0                           000000000  
05004999224500000014000   74004443004300000079536000000000104000000000000   000000013600978MPP MOTO S BLENDED       NEU-ISENBURG DE 599900000     1009N      1 4 0100000
0501            000000                                                          000000000000040M00000400000000000001 0000 0  0   0                           000000000  
05004999224500000014000   74004443004300000079353000000000104000000000000   000000014900978MPP POS SIMPLE           NEU-ISENBURG DE 599900000     1009N      1 4 0100000
0501            000000                                                          000000000000037P00000370000000000001 0000 0  0   0                           000000000  
05004999224500000014000   74004443004300000079239000000000104000000000000   000000014700978MPP ECOMM 2              NEU-ISENBURG DE 599900000     1009N      1 4 0100000
0501            000000                                                          000000000000031E00000310000000000001 0000 0  0   0                           000000000  
05004999224500000014000   74004443004300000079155000000000104000000000000   000000018100840MERCHANT MPP 1           NEU-ISENBURG DE 599900000     1009N      1 4 0100000
0501            000000                                                          000000000000028E00000280000000000001 0000 0  0   0                           000000000  
05004999224500000014000   74004443004300000079213000000000104000000000000   000000011700840MPP POS 1                NEU-ISENBURG DE 599900000     1009N      1 4 0100000
0501            000000                                                          000000000000030P00000300000000000001 0000 0  0   0                           000000000  
05004999224500000014000   74004443004300000079510000000000104000000000000   000000014300840MPP POS S BLENDED        NEU-ISENBURG DE 599900000     1009N      1 4 0100000
0501            000000                                                          000000000000039M00000390000000000001 0000 0  0   0                           000000000  
05004999224500000014000   74004443004300000079395000000000104000000000000   000000015600840MPP POS SIMPLE           NEU-ISENBURG DE 599900000     1009N      1 4 0100000
0501            000000                                                          000000000000037P00000370000000000001 0000 0  0   0                           000000000  
05004999224500000014000   74004443004300000079338000000000104000000000000   000000013400840MPP POS SIMPLE           NEU-ISENBURG DE 599900000     1009N      1 4 0100000
0501            000000                                                          000000000000036M00000360000000000001 0000 0  0   0                           000000000  
05004999224500000014000   74004443004300000079676000000000104000000000000   000000011100826MPP E.COMM S HOLD        NEU-ISENBURG DE 599900000     1009N      1 4 0100000
0501            000000                                                          000000000000042000000100000000000001 0000 0  0   0                           000000000  
05004999224500000014000   74004443004300000079692000000000104000000000000   000000011800840MPP E.COMM S HOLD        NEU-ISENBURG DE 599900000     1009N      1 4 0100000
0501            000000                                                          000000000000042000000100000000000001 0000 0  0   0                           000000000  
05004999224500000014000   74004443004300000079130000000000104000000000000   000000011500826MERCHANT MPP 1           NEU-ISENBURG DE 599900000     1009N      1 4 0100000
0501            000000                                                          000000000000028E00000280000000000001 0000 0  0   0                           000000000  
05004999224500000014000   74004443004300000079197000000000104000000000000   000000012800826MPP POS 1                NEU-ISENBURG DE 599900000     1009N      1 4 0100000
0501            000000                                                          000000000000030P00000300000000000001 0000 0  0   0                           000000000  
05004999224500000014000   74004443004300000079619000000000104000000000000   000000019300826MPP ECOMM S GROSS        NEU-ISENBURG DE 599900000     1009N      1 4 0100000
0501            000000                                                          000000000000041E00000410000000000001 0000 0  0   0                           000000000  
05004999224500000014000   74004443004300000079494000000000104000000000000   000000013600826MPP POS S BLENDED        NEU-ISENBURG DE 599900000     1009N      1 4 0100000
0501            000000                                                          000000000000039M00000390000000000001 0000 0  0   0                           000000000  
05004999224500000014000   74004443004300000079312000000000104000000000000   000000017400826MPP POS SIMPLE           NEU-ISENBURG DE 599900000     1009N      1 4 0100000
0501            000000                                                          000000000000036M00000360000000000001 0000 0  0   0                           000000000  
91000000000000000000000000000000000000003000000100000000006100000000100001000000031000000000000000000000000000303400000000000000000000000000000000000000000000000       
920000000000000000000000000000000000000030000001000000000062000000        000000032000000000000000000000000000303400000000000000000000000000000000000000000000000       
