9043212919288      1928800400     0000      000000000000000000R7YC9EAB      002                                                                                         
4600432129000000900048411090004841109000484110001360      V2110  20192882019288              I1000000000000000000000000000000000000000000000000000000000000            0
4600432129000000900048411090004841109000484110001360      V2110  20192882019288              I2000000000000000000000000000000000000000000000000000000000000            0
4600432129000000900048411090004841109000484110001360      V2110  20192882019288              I3000000000000001000000000000000000000003733174000000003733174DB          0
4600432129000000900048411090004841109000484110001360      V2110  20192882019288              I9000000000000001000000000000000000000003733174000000003733174DB          0
4600432129000000900048411090004841109000484110001360      V2110  20192882019288              F1               000000000000000000000000000000000000000000000            0
4600432129000000900048411090004841109000484110001360      V2110  20192882019288              F2               000000000000000000000000000000000000000000000            0
4600432129000000900048411090004841109000484110001360      V2110  20192882019288              F3               000000000000000000000000000000000000000000000            0
4600432129000000900048411090004841109000484110001360      V2110  20192882019288              F9               000000000000000000000000000000000000000000000            0
4600432129000000900048411090004841109000484110001360      V2110  20192882019288              C1               000000000000000000000000000000000000000000000            0
4600432129000000900048411090004841109000484110001360      V2110  20192882019288              C2               000000000000000000000000000000000000000000000            0
4600432129000000900048411090004841109000484110001360      V2110  20192882019288              C3               000000000000000000000000000000000000000000000            0
4600432129000000900048411090004841109000484110001360      V2110  20192882019288              C9               000000000000000000000000000000000000000000000            0
4600432129000000900048411090004841109000484110001360      V2110  20192882019288              T1               000000000000000000000000000000000000000000000            0
4600432129000000900048411090004841109000484110001360      V2110  20192882019288              T2               000000000000000000000000000000000000000000000            0
4600432129000000900048411090004841109000484110001360      V2110  20192882019288              T3               000000000000000000000003733174000000003733174DB          0
4600432129000000900048411090004841109000484110001360      V2110  20192882019288              T9               000000000000000000000003733174000000003733174DB          0
4600432129000000900048411390004841109000484110001360      V2110  20192882019288              I1000000000000000000000000000000000000000000000000000000000000            0
4600432129000000900048411390004841109000484110001360      V2110  20192882019288              I2000000000000000000000000000000000000000000000000000000000000            0
4600432129000000900048411390004841109000484110001360      V2110  20192882019288              I3000000000000001000000000000000000000003733174000000003733174DB          0
4600432129000000900048411390004841109000484110001360      V2110  20192882019288              I9000000000000001000000000000000000000003733174000000003733174DB          0
4600432129000000900048411390004841109000484110001360      V2110  20192882019288              F1               000000000000000000000000000000000000000000000            0
4600432129000000900048411390004841109000484110001360      V2110  20192882019288              F2               000000000000000000000000000000000000000000000            0
4600432129000000900048411390004841109000484110001360      V2110  20192882019288              F3               000000000000000000000000000000000000000000000            0
4600432129000000900048411390004841109000484110001360      V2110  20192882019288              F9               000000000000000000000000000000000000000000000            0
4600432129000000900048411390004841109000484110001360      V2110  20192882019288              C1               000000000000000000000000000000000000000000000            0
4600432129000000900048411390004841109000484110001360      V2110  20192882019288              C2               000000000000000000000000000000000000000000000            0
4600432129000000900048411390004841109000484110001360      V2110  20192882019288              C3               000000000000000000000000000000000000000000000            0
4600432129000000900048411390004841109000484110001360      V2110  20192882019288              C9               000000000000000000000000000000000000000000000            0
4600432129000000900048411390004841109000484110001360      V2110  20192882019288              T1               000000000000000000000000000000000000000000000            0
4600432129000000900048411390004841109000484110001360      V2110  20192882019288              T2               000000000000000000000000000000000000000000000            0
4600432129000000900048411390004841109000484110001360      V2110  20192882019288              T3               000000000000000000000003733174000000003733174DB          0
4600432129000000900048411390004841109000484110001360      V2110  20192882019288              T9               000000000000000000000003733174000000003733174DB          0
4600432129000000900048411690004841109000484110001360Y     V2110  20192882019288                                                                                        0
46004321290000009000484110900048411090004841100013604583  V4120  20192882019288                 5190NN                              10                                 0
4601       000000000000001               000000003733174DB000000000000000  000000003733174DB                                                                            
46004321290000009000484110900048411090004841100013604583  V4120  20192882019288                 519                                 05                                 0
4601       000000000000001               000000003733174DB000000000000000  000000003733174DB                                                                            
46004321290000009000484110900048411090004841100013604583  V4120  20192882019288                 519                                 06                                 0
4601                                                                       000000003733174DB                                                                            
46004321290000009000484110900048411090004841100013604583  V4120  20192882019288                                                     01                                 0
4601       000000000000001               000000003733174DB000000000000000  000000003733174DB                                                                            
46004321290000009000484110900048411090004841100013604583  V4120  20192882019288                                                     02                                 0
4601                                                                       000000003733174DB                                                                            
46004321290000009000484113900048411090004841100013604583  V4120  20192882019288                 5190NN                              10                                 0
4601       000000000000001               000000003733174DB000000000000000  000000003733174DB                                                                            
46004321290000009000484113900048411090004841100013604583  V4120  20192882019288                 519                                 05                                 0
4601       000000000000001               000000003733174DB000000000000000  000000003733174DB                                                                            
46004321290000009000484113900048411090004841100013604583  V4120  20192882019288                 519                                 06                                 0
4601                                                                       000000003733174DB                                                                            
46004321290000009000484113900048411090004841100013604583  V4120  20192882019288                                                     01                                 0
4601       000000000000001               000000003733174DB000000000000000  000000003733174DB                                                                            
46004321290000009000484113900048411090004841100013604583  V4120  20192882019288                                                     02                                 0
4601                                                                       000000003733174DB                                                                            
4600432129000000900048411690004841109000484110001       Y V4120  20192882019288                                                                                        0
4600432129000000900048411090004841109000484110001       Y V4130  20192882019288                                                                                        0
4600432129000000900048411390004841109000484110001       Y V4130  20192882019288                                                                                        0
4600432129000000900048411690004841109000484110001       Y V4130  20192882019288                                                                                        0
4600432129000000900048411090004841109000484110001       Y V4140  20192882019288                                                                                        0
4600432129000000900048411390004841109000484110001       Y V4140  20192882019288                                                                                        0
4600432129000000900048411690004841109000484110001       Y V4140  20192882019288                                                                                        0
4600432129000000900048411090004841109000484110001       Y V4210  20192882019288                                                                                        0
4600432129000000900048411390004841109000484110001       Y V4210  20192882019288                                                                                        0
4600432129000000900048411690004841109000484110001       Y V4210  20192882019288                                                                                        0
46004321290000009000484110          00000000004580013     V6900  20192882019288YN5190N50000000000000001000000003733174DB08                                             0
46004321290000009000484110          00000000004580013     V6900  20192882019288YN5190N70000000000000001000000003733174DB08                                             0
46004321290000009000484110          00000000004580013     V6900  20192882019288YN5190N80000000000000001000000003733174DB08                                             0
46004321290000009000484110          00000000004580013     V6900  20192882019288YN     50000000000000001000000003733174DB06                                             0
46004321290000009000484110          00000000004580013     V6900  20192882019288YN     70000000000000001000000003733174DB06                                             0
46004321290000009000484110          00000000004580013     V6900  20192882019288YN     80000000000000001000000003733174DB06                                             0
46004321290000009000484110          00000000004580013     V6900  20192882019288       90000000000000001000000003733174DB06                                             0
46004321290000009000484110          00000000000000013     V6900  20192882019288NN7540N50000000000002300000000000000000  08                                             0
46004321290000009000484110          00000000000000013     V6900  20192882019288NN7540N75000000000002300000000000000000  08                                             0
46004321290000009000484110          00000000000000013     V6900  20192882019288NN7540N84000000000002300000000000000000  08                                             0
46004321290000009000484110          00000000000000013     V6900  20192882019288NN7560N50000000000000024000000000000000  08                                             0
46004321290000009000484110          00000000000000013     V6900  20192882019288NN7560N75000000000000024000000000000000  08                                             0
46004321290000009000484110          00000000000000013     V6900  20192882019288NN7560N84000000000000024000000000000000  08                                             0
46004321290000009000484110          00000000000000013     V6900  20192882019288NN     50000000000002324000000000000000  06                                             0
46004321290000009000484110          00000000000000013     V6900  20192882019288NN     75000000000002324000000000000000  06                                             0
46004321290000009000484110          00000000000000013     V6900  20192882019288NN     84000000000002324000000000000000  06                                             0
46004321290000009000484110          00000000000000013     V6900  20192882019288       90000000000002324000000000000000  06                                             0
46004321290000009000484110                    4580013     V6900S 2019288201928800     50000000000000001000000003733174DB06                                             0
46004321290000009000484110                    4580013     V6900S 2019288201928800     80000000000000001000000003733174DB06                                             0
46004321290000009000484110                    4580013     V6900S 2019288201928800     90000000000000001000000003733174DB06                                             0
46004321290000009000484110                    458001      V6900S 2019288201928800     50000000000000001000000003733174DB05                                             0
46004321290000009000484110                    458001      V6900S 2019288201928800     80000000000000001000000003733174DB05                                             0
46004321290000009000484110                    458001      V6900S 2019288201928800     90000000000000001000000003733174DB05                                             0
46004321290000009000484110                    0000013     V6900S 2019288201928810     50000000000002324                 06                                             0
46004321290000009000484110                    0000013     V6900S 2019288201928810     84000000000002324                 06                                             0
46004321290000009000484110                    0000013     V6900S 2019288201928810     90000000000002324000000000000000  06                                             0
46004321290000009000484110                    000001      V6900S 2019288201928810     50000000000002324                 05                                             0
46004321290000009000484110                    000001      V6900S 2019288201928810     84000000000002324                 05                                             0
46004321290000009000484110                    000001      V6900S 2019288201928810     90000000000002324000000000000000  05                                             0
46004321290000009000484110                       001      V6900S 2019288201928800     50000000000000001                 04                                             0
46004321290000009000484110                       001      V6900S 2019288201928800     80000000000000001                 04                                             0
46004321290000009000484110                       001      V6900S 2019288201928810     50000000000002324                 04                                             0
46004321290000009000484110                       001      V6900S 2019288201928810     84000000000002324                 04                                             0
46004321290000009000484110                       001      V6900S 2019288201928810     90000000000002325                 04                                             0
46004321290000009000484113          00000000004580013     V6900  20192882019288YN5190N50000000000000001000000003733174DB08                                             0
46004321290000009000484113          00000000004580013     V6900  20192882019288YN5190N70000000000000001000000003733174DB08                                             0
46004321290000009000484113          00000000004580013     V6900  20192882019288YN5190N80000000000000001000000003733174DB08                                             0
46004321290000009000484113          00000000004580013     V6900  20192882019288YN     50000000000000001000000003733174DB06                                             0
46004321290000009000484113          00000000004580013     V6900  20192882019288YN     70000000000000001000000003733174DB06                                             0
46004321290000009000484113          00000000004580013     V6900  20192882019288YN     80000000000000001000000003733174DB06                                             0
46004321290000009000484113          00000000004580013     V6900  20192882019288       90000000000000001000000003733174DB06                                             0
46004321290000009000484113          00000000000000013     V6900  20192882019288NN7540N50000000000002300000000000000000  08                                             0
46004321290000009000484113          00000000000000013     V6900  20192882019288NN7540N75000000000002300000000000000000  08                                             0
46004321290000009000484113          00000000000000013     V6900  20192882019288NN7540N84000000000002300000000000000000  08                                             0
46004321290000009000484113          00000000000000013     V6900  20192882019288NN7560N50000000000000024000000000000000  08                                             0
46004321290000009000484113          00000000000000013     V6900  20192882019288NN7560N75000000000000024000000000000000  08                                             0
46004321290000009000484113          00000000000000013     V6900  20192882019288NN7560N84000000000000024000000000000000  08                                             0
46004321290000009000484113          00000000000000013     V6900  20192882019288NN     50000000000002324000000000000000  06                                             0
46004321290000009000484113          00000000000000013     V6900  20192882019288NN     75000000000002324000000000000000  06                                             0
46004321290000009000484113          00000000000000013     V6900  20192882019288NN     84000000000002324000000000000000  06                                             0
46004321290000009000484113          00000000000000013     V6900  20192882019288       90000000000002324000000000000000  06                                             0
46004321290000009000484113                    4580013     V6900S 2019288201928800     50000000000000001000000003733174DB06                                             0
46004321290000009000484113                    4580013     V6900S 2019288201928800     80000000000000001000000003733174DB06                                             0
46004321290000009000484113                    4580013     V6900S 2019288201928800     90000000000000001000000003733174DB06                                             0
46004321290000009000484113                    458001      V6900S 2019288201928800     50000000000000001000000003733174DB05                                             0
46004321290000009000484113                    458001      V6900S 2019288201928800     80000000000000001000000003733174DB05                                             0
46004321290000009000484113                    458001      V6900S 2019288201928800     90000000000000001000000003733174DB05                                             0
46004321290000009000484113                    0000013     V6900S 2019288201928810     50000000000002324                 06                                             0
46004321290000009000484113                    0000013     V6900S 2019288201928810     84000000000002324                 06                                             0
46004321290000009000484113                    0000013     V6900S 2019288201928810     90000000000002324000000000000000  06                                             0
46004321290000009000484113                    000001      V6900S 2019288201928810     50000000000002324                 05                                             0
46004321290000009000484113                    000001      V6900S 2019288201928810     84000000000002324                 05                                             0
46004321290000009000484113                    000001      V6900S 2019288201928810     90000000000002324000000000000000  05                                             0
46004321290000009000484113                       001      V6900S 2019288201928800     50000000000000001                 04                                             0
46004321290000009000484113                       001      V6900S 2019288201928800     80000000000000001                 04                                             0
46004321290000009000484113                       001      V6900S 2019288201928810     50000000000002324                 04                                             0
46004321290000009000484113                       001      V6900S 2019288201928810     84000000000002324                 04                                             0
46004321290000009000484113                       001      V6900S 2019288201928810     90000000000002325                 04                                             0
46004321290000009000484116          0000000000000001 Y    V6900  20192882019288         000000000000000000000000000000                                                 0
46004321290000009000484116                       001 Y    V6900S 20192882019288                                                                                        0
46004321290000009000484112          00000000000000301     V6900  20192882019288NN8000N10000000000000001000000000000000  08                                             0
46004321290000009000484112          00000000000000301     V6900  20192882019288NN8000N45000000000000001000000000000000  08                                             0
46004321290000009000484112          00000000000000301     V6900  20192882019288NN8000N84000000000000001000000000000000  08                                             0
46004321290000009000484112          00000000000000301     V6900  20192882019288NN     10000000000000001000000000000000  06                                             0
46004321290000009000484112          00000000000000301     V6900  20192882019288NN     45000000000000001000000000000000  06                                             0
46004321290000009000484112          00000000000000301     V6900  20192882019288NN     84000000000000001000000000000000  06                                             0
46004321290000009000484112          00000000000000301     V6900  20192882019288       90000000000000001000000000000000  06                                             0
46004321290000009000484112                    0000301     V6900S 2019288201928810     10000000000000001                 06                                             0
46004321290000009000484112                    0000301     V6900S 2019288201928810     84000000000000001                 06                                             0
46004321290000009000484112                    0000301     V6900S 2019288201928810     90000000000000001000000000000000  06                                             0
46004321290000009000484112                    000030      V6900S 2019288201928810     10000000000000001                 05                                             0
46004321290000009000484112                    000030      V6900S 2019288201928810     84000000000000001                 05                                             0
46004321290000009000484112                    000030      V6900S 2019288201928810     90000000000000001000000000000000  05                                             0
46004321290000009000484112                       030      V6900S 2019288201928810     10000000000000001                 04                                             0
46004321290000009000484112                       030      V6900S 2019288201928810     84000000000000001                 04                                             0
46004321290000009000484112                       030      V6900S 2019288201928810     90000000000000001                 04                                             0
46004321290000009000484114          00000000000000301     V6900  20192882019288NN8000N10000000000000001000000000000000  08                                             0
46004321290000009000484114          00000000000000301     V6900  20192882019288NN8000N45000000000000001000000000000000  08                                             0
46004321290000009000484114          00000000000000301     V6900  20192882019288NN8000N84000000000000001000000000000000  08                                             0
46004321290000009000484114          00000000000000301     V6900  20192882019288NN     10000000000000001000000000000000  06                                             0
46004321290000009000484114          00000000000000301     V6900  20192882019288NN     45000000000000001000000000000000  06                                             0
46004321290000009000484114          00000000000000301     V6900  20192882019288NN     84000000000000001000000000000000  06                                             0
46004321290000009000484114          00000000000000301     V6900  20192882019288       90000000000000001000000000000000  06                                             0
46004321290000009000484114                    0000301     V6900S 2019288201928810     10000000000000001                 06                                             0
46004321290000009000484114                    0000301     V6900S 2019288201928810     84000000000000001                 06                                             0
46004321290000009000484114                    0000301     V6900S 2019288201928810     90000000000000001000000000000000  06                                             0
46004321290000009000484114                    000030      V6900S 2019288201928810     10000000000000001                 05                                             0
46004321290000009000484114                    000030      V6900S 2019288201928810     84000000000000001                 05                                             0
46004321290000009000484114                    000030      V6900S 2019288201928810     90000000000000001000000000000000  05                                             0
46004321290000009000484114                       030      V6900S 2019288201928810     10000000000000001                 04                                             0
46004321290000009000484114                       030      V6900S 2019288201928810     84000000000000001                 04                                             0
46004321290000009000484114                       030      V6900S 2019288201928810     90000000000000001                 04                                             0
910043212919288000000000000000000000000000000001000000000166000000        000000156000000000000000000000000000000000000000000000000000000000000000000000000000000       
4600432129000000900048411090004841109000484110001360Y     V2110  20192892019289                                                                                        0
4600432129000000900048411390004841109000484110001360Y     V2110  20192892019289                                                                                        0
4600432129000000900048411690004841109000484110001360Y     V2110  20192892019289                                                                                        0
4600432129000000900048411090004841109000484110001       Y V4120  20192892019289                                                                                        0
4600432129000000900048411390004841109000484110001       Y V4120  20192892019289                                                                                        0
4600432129000000900048411690004841109000484110001       Y V4120  20192892019289                                                                                        0
4600432129000000900048411090004841109000484110001       Y V4130  20192892019289                                                                                        0
4600432129000000900048411390004841109000484110001       Y V4130  20192892019289                                                                                        0
4600432129000000900048411690004841109000484110001       Y V4130  20192892019289                                                                                        0
4600432129000000900048411090004841109000484110001       Y V4140  20192892019289                                                                                        0
4600432129000000900048411390004841109000484110001       Y V4140  20192892019289                                                                                        0
4600432129000000900048411690004841109000484110001       Y V4140  20192892019289                                                                                        0
4600432129000000900048411090004841109000484110001       Y V4210  20192892019289                                                                                        0
4600432129000000900048411390004841109000484110001       Y V4210  20192892019289                                                                                        0
4600432129000000900048411690004841109000484110001       Y V4210  20192892019289                                                                                        0
46004321290000009000484110          00000000000000013     V6900  20192892019289NN7540N50000000000003022000000000000000  08                                             0
46004321290000009000484110          00000000000000013     V6900  20192892019289NN7540N75000000000003022000000000000000  08                                             0
46004321290000009000484110          00000000000000013     V6900  20192892019289NN7540N84000000000003022000000000000000  08                                             0
46004321290000009000484110          00000000000000013     V6900  20192892019289NN7560N50000000000000024000000000000000  08                                             0
46004321290000009000484110          00000000000000013     V6900  20192892019289NN7560N75000000000000024000000000000000  08                                             0
46004321290000009000484110          00000000000000013     V6900  20192892019289NN7560N84000000000000024000000000000000  08                                             0
46004321290000009000484110          00000000000000013     V6900  20192892019289NN     50000000000003046000000000000000  06                                             0
46004321290000009000484110          00000000000000013     V6900  20192892019289NN     75000000000003046000000000000000  06                                             0
46004321290000009000484110          00000000000000013     V6900  20192892019289NN     84000000000003046000000000000000  06                                             0
46004321290000009000484110          00000000000000013     V6900  20192892019289       90000000000003046000000000000000  06                                             0
46004321290000009000484110                    0000013     V6900S 2019289201928910     50000000000003046                 06                                             0
46004321290000009000484110                    0000013     V6900S 2019289201928910     84000000000003046                 06                                             0
46004321290000009000484110                    0000013     V6900S 2019289201928910     90000000000003046000000000000000  06                                             0
46004321290000009000484110                    000001      V6900S 2019289201928910     50000000000003046                 05                                             0
46004321290000009000484110                    000001      V6900S 2019289201928910     84000000000003046                 05                                             0
46004321290000009000484110                    000001      V6900S 2019289201928910     90000000000003046000000000000000  05                                             0
46004321290000009000484110                       001      V6900S 2019289201928910     50000000000003046                 04                                             0
46004321290000009000484110                       001      V6900S 2019289201928910     84000000000003046                 04                                             0
46004321290000009000484110                       001      V6900S 2019289201928910     90000000000003046                 04                                             0
46004321290000009000484113          00000000000000013     V6900  20192892019289NN7540N50000000000003022000000000000000  08                                             0
46004321290000009000484113          00000000000000013     V6900  20192892019289NN7540N75000000000003022000000000000000  08                                             0
46004321290000009000484113          00000000000000013     V6900  20192892019289NN7540N84000000000003022000000000000000  08                                             0
46004321290000009000484113          00000000000000013     V6900  20192892019289NN7560N50000000000000024000000000000000  08                                             0
46004321290000009000484113          00000000000000013     V6900  20192892019289NN7560N75000000000000024000000000000000  08                                             0
46004321290000009000484113          00000000000000013     V6900  20192892019289NN7560N84000000000000024000000000000000  08                                             0
46004321290000009000484113          00000000000000013     V6900  20192892019289NN     50000000000003046000000000000000  06                                             0
46004321290000009000484113          00000000000000013     V6900  20192892019289NN     75000000000003046000000000000000  06                                             0
46004321290000009000484113          00000000000000013     V6900  20192892019289NN     84000000000003046000000000000000  06                                             0
46004321290000009000484113          00000000000000013     V6900  20192892019289       90000000000003046000000000000000  06                                             0
46004321290000009000484113                    0000013     V6900S 2019289201928910     50000000000003046                 06                                             0
46004321290000009000484113                    0000013     V6900S 2019289201928910     84000000000003046                 06                                             0
46004321290000009000484113                    0000013     V6900S 2019289201928910     90000000000003046000000000000000  06                                             0
46004321290000009000484113                    000001      V6900S 2019289201928910     50000000000003046                 05                                             0
46004321290000009000484113                    000001      V6900S 2019289201928910     84000000000003046                 05                                             0
46004321290000009000484113                    000001      V6900S 2019289201928910     90000000000003046000000000000000  05                                             0
46004321290000009000484113                       001      V6900S 2019289201928910     50000000000003046                 04                                             0
46004321290000009000484113                       001      V6900S 2019289201928910     84000000000003046                 04                                             0
46004321290000009000484113                       001      V6900S 2019289201928910     90000000000003046                 04                                             0
46004321290000009000484116          0000000000000001 Y    V6900  20192892019289         000000000000000000000000000000                                                 0
46004321290000009000484116                       001 Y    V6900S 20192892019289                                                                                        0
910043212919288000000000000000000000000000000002000000000056000000        000000056000000000000000000000000000000000000000000000000000000000000000000000000000000       
920043212919288000000000000000000000000000000002000000000223000000        000000213000000000000000000000000000000000000000000000000000000000000000000000000000000       
