9046469421292                TEST                                           002                                                                                         
15004003780001234562000   74646941292141000620624000000000914000000000000360000010000001360HST_8398_360_F_005_KE    JAKARTA      ID 839800000     1008N1000139 1 0100000
1501            000000                                                          90000009888891198888911000000000000  000000  0   0                           000000000  
150509271830608603100001000000136000KF64    0000 000000000000N                             000000000000000 0000000000000000000000000000F             0000000000000000  M
16004003780001234562000   74646941292141000620525000000000914000000000000360000010000001360HST_8398_360_F_006_KE    JAKARTA      ID 839800000     1008N1000099 1 0100000
1601            000000                                                          90000009888891098888910000000000000  000000  0   0                           000000000  
1605092718306086031000000000000   00KF64    0000 000000000000N                             000000000000000 0000000000000000000000000000F             0000000000000000  M
91004646942129200000000000000000000000000200000100000000000700000000100401000000003000000000000000000000000020000002000000000000000000000000000000000000000000000       
920046469421292000000000000000000000000002000001000000000008000000        000000004000000000000000000000000020000002000000000000000000000000000000000000000000000       